:02000000D62800
:10000600710DF80DF90D7408F8027508031C750FCB
:10001600F902F00DF10D0F30FC00710DF80DF90D20
:100026007408701C1C28F8027508031C750FF90269
:100036002128F80775080318750FF907F00DF10D5B
:10004600FC0B102870182D287408F807750803187B
:08005600750FF9070000080016
:0E005E00831203132D088A002C08820008006C
:10006C00831203137408003A031D45287508003ADF
:10007C00031D4528FF30F0007F30F1009E288312CD
:10008C000313FD01F901F801710870040319003420
:10009C0071087506FA00FA1BFD09FB01F51F5B28B8
:1000AC00F409F509F40A0319F50AF11F6228F0099D
:1000BC00F109F00A0319F10A71087504FA00FA1B28
:1000CC00772803207B188A28FD1F0034F009F109DA
:1000DC00F00A0319F10AF809F909F80A0319F90ADF
:1000EC000034F51F8628F11B82287108F90070086E
:1000FC00F800F101F0016A28F101F001F00A003476
:10010C00F109F009FB0A6728F80A0319F90A7408BF
:10011C007802031D6A2875087902031D6A28F90103
:10012C00F801F00A0319F10AF11F6A280000FF34E4
:02013C000800B9
:10013E002F208A110A128000840AAC0A0319AD0A14
:08014E00F003031D9F280800C7
:1001560083120313FB01FA01F9018030F800F10C58
:10016600F00C031CBF287408F90775080318750FEF
:10017600FA070318FB0A0310F01FC7287408FA07CA
:1001860075080318750FFB07FB0CFA0CF90CF80C35
:10019600031CB2287B08F3007A08F2007908F10004
:0601A6007808F0000800DB
:1001AC0083120313A001A1010A30A200A301A40130
:1001BC00A501A601A701A801A901AA01AB018316FB
:1001CC008E15860183128601E0308316850083121A
:1001DC00851EFC28851EF328F028200821040130F8
:1001EC00031D0030A000A1000030A1002008210454
:1001FC0003199B2900302706031D06290930260602
:10020C000130031D0030F10000302906031D1029B8
:10021C00093028060130031D0030F0007008F1058C
:10022C0000302B06031D1C2909302A060130031D42
:10023C000030F0007108F005031939292208F0008C
:10024C002308F1000A30F4000030F500AB207008F0
:10025C00A2007108A3000130A6000030A700A8017D
:10026C00A901AA01AB01A401A50180302506F0006B
:10027C00803023067002031D45292208240203182E
:10028C0055290330FC009730FD00FD0B4B29FC0B6E
:10029C004B2900000000A40A0319A50A3B290430CD
:1002AC00F1002A08F000710803196029F00D701094
:1002BC00FF3E5A2928087007860026088500AA0ADE
:1002CC000319AB0A00302B06031D6E290A302A06CF
:1002DC00031D9329AA01AB01A80A0319A90A00302E
:1002EC002906031D7B290A302806031D9329A80122
:1002FC00A901A60A0319A70A0A30F4000030F50078
:10030C002608F0002708F10036207808F00079085C
:10031C00F1007008A6007108A700051F9B29AA010F
:0E032C00AB01A801A901A601A701ED289C299B
:02400E00192176
:00000001FF
