:020000001628C0
:0E0006008312031329088A00280882000800CC
:1000140003208A110A128000840AA80A0319A90A73
:08002400F003031D0A28080087
:10002C0083120313A001A101A201A301A401A50144
:10003C00A601A70183168E15860183128601E03076
:10004C00831685008312851E3728851E2E282B28A3
:10005C00260827040130031D0030A600A70000303D
:10006C00A7002608270403197D280230FB00043062
:10007C00FC00BA30FD00FD0B4128FC0B4128FB0BAA
:10008C00412800000430F1002208F0007108031927
:10009C005328F00D7010FF3E4D2824087007860081
:1000AC0020088500A20A0319A30A00302306031DA9
:1000BC0061280A302206031D7528A201A301A40A97
:1000CC000319A50A00302506031D6E280A302406E4
:1000DC00031D7528A401A501A00A0319A10A051F77
:1000EC007D28A201A301A401A501A001A10128283A
:0200FC007E285C
:02400E00192176
:00000001FF
