:020000001628C0
:0E0006008312031322088A00210882000800DA
:1000140003208A110A128000840AA10A0319A20A81
:08002400F003031D0A28080087
:10002C00013083120313A00083168E150730831240
:10003C009F00013083168500860180308312860074
:10004C00051C54282008013A031D3E280330FB00F0
:10005C000830FC007730FD00FD0B3228FC0B3228F9
:10006C00FB0B32280608F000F00CF0137008860029
:10007C002008003A031D54280330FB000830FC0014
:10008C007730FD00FD0B4828FC0B4828FB0B48285B
:10009C000608F000F00D701070088600061C57283A
:0E00AC00A001861F5B280130A00026285C28DA
:02400E006A2125
:00000001FF
