:020000001628C0
:0E0006008312031322088A00210882000800DA
:1000140003208A110A128000840AA10A0319A20A81
:08002400F003031D0A28080087
:10002C00803083120313A00083168E1507308312C1
:10003C009F000130831685008601831220088600FC
:10004C0005183A280330FB000830FC007730FD001F
:10005C00FD0B2E28FC0B2E28FB0B2E280608F0007F
:10006C00F00CF01370088600051C4E280330FB00C2
:10007C000830FC007730FD00FD0B4228FC0B4228B9
:10008C00FB0B42280608F000F00D7010700886007B
:04009C0026284F289B
:02400E006A2125
:00000001FF
